S0120000524C37385F4C69624465762E6D6F74CD
S1070000DA00FFFF20
S1130004F8010A021C022E02400252026402760221
S113001488029A02AC02BE02D002E202F40206038F
S113002418032A033C034E036003720384039603F8
S1130034A803BA039701CC03FFFFFFFFFFFFDE030E
S1130044F00302041404260438044A045C046E0411
S11300548004FFFFFFFFFFFFFFFF9204FFFFA404E0
S1130064FFFFFFFFFFFFFFFFFFFFFFFFFFFFFFFF98
S10F0074FFFFFFFFFFFFFFFFFFFFB604CC
S10700C00091ED8436
S10D00C4000000000000000000002E
S11300D8EFFECBF8DCFE410061CF34D8003600EFE8
S11300E861DF3600EF3000EF27311E440000DD0EDB
S11300F8B161CF11A9BBA5A5A7A761DFEFED61CFBA
S113010830000061DF3000EF3600EF27311E440075
S113011800DD0AB161CFBBA7A761DFEFF161CFFCB6
S1130128F7010000300000C1C1C1FC380100EFFE36
S11301382004717BFA5102980051029802FC0E05C2
S113014800FCC8040030B80BB800FC1107005104C7
S1130158980051049802FCA50700C9F024FFADF0EB
S1130168BDF4FAF48B9DF25AF2F7ADF0EAF48DF28D
S113017899C9F004FFADF0BDF4FAF48B9DF25AF27C
S1130188F7ADF0EAF48DF299717AFAEC9301006113
S1130198CFC1C3C5C761DFC1C3C561CF8EFDC1C9A6
S11301A8F204FFC9F004FFADF0BDF4FAF48B9DF03E
S11301B8313A9DF05AF0017AF0FF5AF0015AF001F1
S11301C88DF031399DF0ADF2BDF4FAF48B9DF15AFE
S11301D8F1F78DF16BF09DF0ADF2EAF48DF099C072
S11301E89EFD61DFC4C2C061CFC6C4C2C061FCD772
S11301F861CFC1C3C5C78EFDC1C09EFDC6C4C2C000
S113020861FC61CFC1C3C5C78EFDC1C09EFDC6C414
S1130218C2C061FC61CFC1C3C5C78EFDC1C09EFD0C
S1130228C6C4C2C061FC61CFC1C3C5C78EFDC1C00D
S11302389EFDC6C4C2C061FC61CFC1C3C5C78EFDE3
S1130248C1C09EFDC6C4C2C061FC61CFC1C3C5C7DD
S11302588EFDC1C09EFDC6C4C2C061FC61CFC1C3CE
S1130268C5C78EFDC1C09EFDC6C4C2C061FC61CFB6
S1130278C1C3C5C78EFDC1C09EFDC6C4C2C061FC52
S113028861CFC1C3C5C78EFDC1C09EFDC6C4C2C06F
S113029861FC61CFC1C3C5C78EFDC1C09EFDC6C484
S11302A8C2C061FC61CFC1C3C5C78EFDC1C09EFD7C
S11302B8C6C4C2C061FC61CFC1C3C5C78EFDC1C07D
S11302C89EFDC6C4C2C061FC61CFC1C3C5C78EFD53
S11302D8C1C09EFDC6C4C2C061FC61CFC1C3C5C74D
S11302E88EFDC1C09EFDC6C4C2C061FC61CFC1C33E
S11302F8C5C78EFDC1C09EFDC6C4C2C061FC61CF26
S1130308C1C3C5C78EFDC1C09EFDC6C4C2C061FCC1
S113031861CFC1C3C5C78EFDC1C09EFDC6C4C2C0DE
S113032861FC61CFC1C3C5C78EFDC1C09EFDC6C4F3
S1130338C2C061FC61CFC1C3C5C78EFDC1C09EFDEB
S1130348C6C4C2C061FC61CFC1C3C5C78EFDC1C0EC
S11303589EFDC6C4C2C061FC61CFC1C3C5C78EFDC2
S1130368C1C09EFDC6C4C2C061FC61CFC1C3C5C7BC
S11303788EFDC1C09EFDC6C4C2C061FC61CFC1C3AD
S1130388C5C78EFDC1C09EFDC6C4C2C061FC61CF95
S1130398C1C3C5C78EFDC1C09EFDC6C4C2C061FC31
S11303A861CFC1C3C5C78EFDC1C09EFDC6C4C2C04E
S11303B861FC61CFC1C3C5C78EFDC1C09EFDC6C463
S11303C8C2C061FC61CFC1C3C5C78EFDC1C09EFD5B
S11303D8C6C4C2C061FC61CFC1C3C5C78EFDC1C05C
S11303E89EFDC6C4C2C061FC61CFC1C3C5C78EFD32
S11303F8C1C09EFDC6C4C2C061FC61CFC1C3C5C72C
S11304088EFDC1C09EFDC6C4C2C061FC61CFC1C31C
S1130418C5C78EFDC1C09EFDC6C4C2C061FC61CF04
S1130428C1C3C5C78EFDC1C09EFDC6C4C2C061FCA0
S113043861CFC1C3C5C78EFDC1C09EFDC6C4C2C0BD
S113044861FC61CFC1C3C5C78EFDC1C09EFDC6C4D2
S1130458C2C061FC61CFC1C3C5C78EFDC1C09EFDCA
S1130468C6C4C2C061FC61CFC1C3C5C78EFDC1C0CB
S11304789EFDC6C4C2C061FC61CFC1C3C5C78EFDA1
S1130488C1C09EFDC6C4C2C061FC61CFC1C3C5C79B
S11304988EFDC1C09EFDC6C4C2C061FC61CFC1C38C
S11304A8C5C78EFDC1C09EFDC6C4C2C061FC61CF74
S11304B8C1C3C5C78EFDC1C09EFDC6C4C2C061FC10
S11304C8C9F0A4FFADF0BDF4FAF48B9DF25AF2BF63
S11304D8ADF0EAF48DF299C9F0A4FFADF0BDF4FAD9
S11304E8F48B9DF26AF210ADF0EAF48DF299C9F03A
S11304F8A1FFADF0BDF4FAF48B9DF26AF201ADF000
S1130508EAF48DF299D7200AF19809F19803F19841
S113051802C9F07700ADF0BDF2EAF2F199880E3124
S11305288EBDF044010061F8EC710500ADF04401A2
S11305380071FF61F3EC500500ADF044000061F870
S1130548EC6A0500EC890500ADF044020061F8ECA2
S1130558790500ADF044030061F8EC810500EC89ED
S11305680500F19809EC92050051409809EC9205B0
S11305780051419809EC92050051C09809EC920584
S11305880030FFFFB800EC0A07008810318EBDF078
S113059844020061F8ECEC0500ADF044020071FF80
S11305A861F3ECC80500ADF044000061F8EC1306F3
S11305B800ADF044010061F8ECE20500EC0A060025
S11305C8ADF044030061F8ECF60500ADF044040016
S11305D861F8EC000600EC0A060088096C1098091A
S11305E8EC14060088096C129809EC1406008809B2
S11305F86C149809EC14060088096C309809EC14FA
S1130608060030FFFFB800EC0A070000C9F0A0FF9D
S113061888099DF2ADF0BDF4EAF48DF299880ED103
S113062861F8EC8E0600880E4C0361F8EC8E060027
S1130638C9F0A3FFADF0BDF2EAF2510799C9F0A1E0
S1130648FFADF0BDF4FAF48B9DF25AF27FADF0EAF7
S1130658F48DF29951FF9802C9F0A2FFADF0BDF2F2
S1130668FAF28B9DF098038802728803615A980302
S113067888029DF088034BF061E8EC8A0600EC8E52
S11306880600EC6006008810D161F8ECE3060088E7
S1130698104C0461F8ECE30600C9F0A1FFADF0BD0D
S11306A8F4FAF48B9DF25AF2BFADF0EAF48DF299A4
S11306B8F6B804F6B806ECD1060000A80404010054
S11306C8B804A80661D8A1B806A806440000A8047E
S11306D861F844A00061E3ECC20600C9F0F300AD80
S11306E8F0BDF2EAF2519099C9F0A4FFADF0BDF45F
S11306F8FAF48B9DF25AF2BFADF0EAF48DF299F652
S1130708B800A800BDF0100AD72004F6B802C9F052
S1130718F300ADF0BDF2FAF28B9DF098015CEF980E
S113072801C9F0F30088019DF2ADF0BDF4EAF48D3F
S1130738F299C9F0F000ADF0BDF4FAF48B9DF26AB9
S1130748F280ADF0EAF48DF299A808BDF05C0FBD13
S1130758F2B802BDF06C80BDF4B802C9F290FFA8EB
S113076802BDF0ADF2BDF4EAF4ADF0B9C9F0E3FFAF
S1130778ADF0BDF4FAF48B9DF25AF2FBADF0EAF455
S11307888DF299C9F0E7FFADF0BDF4FAF48B9DF250
S11307985AF2FBADF0EAF48DF2991004D72004F66E
S11307A8B802C9F0F000ADF0BDF4FAF48B9DF26A1A
S11307B8F204ADF0EAF48DF299880A318EB8023168
S11307C84DB8028808318EBDF2A802BDF0DAF26194
S11307D86B08616A08BDF4B802C9F22601A802BD13
S11307E8F0ADF2BDF4EAF4ADF0B9F6B800BDF0101E
S10507F804D720
S90300DA22
